:060000000A128A11FC2F18
:100EFE0083120313080C0139842F08008312031385
:100F0E008812081388130800831203130808013986
:100F1E00902F080083120313881688170A128A115D
:100F2E009F270A128A1183120313081788130800C9
:100F3E00F2011E307202031CA52FA62FA82FC82F58
:100F4E00C82F8230F100DD30F000F00BAC2FF10B2A
:100F5E00AC2FB12F0A128A118B270A128A11003A6E
:100F6E00031DBA2FBB2FBD2FC82FC82F0130F00085
:100F7E007008F2071E307202031CC62FC72FA82F4F
:100F8E00C82F08000F308316031388008312031333
:100F9E008801D12F83120313881AD62FD72FE72F4C
:100FAE000A128A117F270A128A11003A031DE02FB6
:100FBE00E12FE72F0A128A1191270A128A11E72FC1
:100FCE000A128A118B270A128A11003A031DF02F7A
:100FDE00F12FD12F0A128A1185270A128A11D12FC9
:100FEE00D12FD12F0A128A11002883010A128A11D9
:020FFE00C92FF9
:04400E00D4E0FFFFFC
:00000001FF
